:0400000002005B326D
:03000B000204A547
:0100130032BA
:03001B00020413C9
:0100230032AA
:01002B0032A2
:01003300329A
:01003B003292
:0300430002310087
:01004B003282
:0300530002310077
:0300D400020056D1
:030056000200D7CE
:2000D700C201C200E4F510F51190E680E0FF740A4FF09005DC12155F90E680E0FF74F75F6D
:2000F700F01205BB755C007582B0120AD290E100E4F5F012147AD2E890E668E0FF74084FA5
:20011700F090E65CE0FF74014FF0E0FF74024FF0E0FF74204FF0E0FF74104FF0D2AF758213
:20013700021209059032257405F0758202120DFE120F2C9032277414F0E4A3F07533C3751B
:200157003404120E371208B6120888D2ABD28C120F3A12092712090AE51360F3120FE01589
:200177001380EC75820022AF82BFB14D90E6BAE0F582121106AD82AE83E0FC7B00C006C0F5
:2001970005C004C003740AC0E0741DC0E07480C0E01215DAE58124FBF581D005D006ED4EF7
:2001B70060358D828E83E090E740F090E68AE4F090E68B04F075820122C007120CC97E00DD
:2001D700C0067413C0E0741DC0E07480C0E01215DAE58124FBF58175820022AF82C00774D5
:2001F7003BC0E0741DC0E07480C0E01215DA158115811581D007EF7014AD18AE19AF1A8D59
:20021700828E838FF0E41213FB7582012275820022AF82AD1B7E008F037C00C007C005C0AD
:2002370006C003C004744AC0E0741DC0E07480C0E01215DAE58124F9F581D007EF7065E57D
:200257001B706190E6837402F07422F07416F07436F090E6047480F00000000090E6047456
:2002770082F00000000090E604E4F00000000090E6917480F00000000090E6917480F000D1
:2002970000000090E6047480F00000000090E6047486F00000000090E604E4F00000000037
:2002B7007582012275820022C0E0C082C083C0D075D00890322AE02401F0A3E03400F090DA
:2002D700322AE0FEA3E0FFBE4019BF1F16B2033003067592B8E280047592B0E290322AE4C4
:2002F700F0A3F0AF9174EF5FF59190E65D7402F0D0D0D083D082D0E03275820122AF82BF72
:2003170001047F0180027F008F8222C022C0E0C0F0C082C083C007C006C005C004C003C0BD
:2003370002C001C000C0D075D0001206AB1206ABD2010513AF9174EF5FF59190E65D74010D
:20035700F0D0D0D000D001D002D003D004D005D006D007D083D082D0F0D0E0D02232C0223F
:20037700C0E0C0F0C082C083C007C006C005C004C003C002C001C000C0D075D000758200A9
:200397001212E1AF9174EF5FF59190E65D7410F0D0D0D000D001D002D003D004D005D0060D
:2003B700D007D083D082D0F0D0E0D02232C022C0E0C0F0C082C083C007C006C005C004C089
:2003D70003C002C001C000C0D075D0007582011212E1AF9174EF5FF59190E65D7420F0D03F
:2003F700D0D000D001D002D003D004D005D006D007D083D082D0F0D0E0D02232C0E0C0D011
:200417000526E5265403600280337401B52A2B43B21005287401B52804C284801DE5282408
:20043700FE500FE52824F54009E524139284F5248008D284752800752A007526000527E5C8
:200457002B701053B2DFA2854009752700752900752B02E52754036002802E7402B52B02DF
:2004770080057403B52B1F752B0353B2DF052974F625294009E525A28513F5258008A285A7
:20049700752900752B01752700D0D0D0E032C0E0C082C083C0D090322CE02401F0A3E03499
:1204B70000F0D0D0D083D082D0E0322275B208B2832274
:201D0A00657020253032780A004E65656420746F20696D706C656D656E742076656E646F15
:201D2A007220636F6D6D616E643A20253032780A0047657420496E746572666163650A00EA
:1D1D4A0053657420696E7465726661636520256420746F20616C743A2025640A0085
:021D720000006F
:0B00B400E4F51CF51D751E40751F9C37
:2004C900AF8874CF5FF58890E7C07431F090E7C17401F000000000AF1C90E68F74022FF0EF
:2004E900E4F51CF51D22AF82E51C24C0FDE51D34E7FE74022DFDE43EFE90E6A2E0FC20E1E7
:20050900F88D828E83EFF0051CE4B51C02051DC3E51C943EE51D940040031204C9E51C454D
:200529001D6019E58820E41474FFC3951EFE74FF951FFD8D8C7F008E8A438810222290E647
:20054900007410F00000000090E60174C0F00000000090E60B7403F00000000090E61074A1
:20056900A0F00000000090E61174A0F00000000090E612E4F00000000090E613E4F000009E
:20058900000090E614E4F00000000090E615E4F00000000090E68D74FFF090E6B57401F09F
:2005A90075A880F5E890E65CF090E670E4F075B2012290E680E0FF74084FF012054790E68E
:2005C90080E0FF74024FF0E0FF74F75FF0AF8E74F75FF58E438901AF8874CF5FF588229006
:2005E900E68DE0FE7F0074012480FCE434E7FD1EBEFF011F7A007B00C3EA9EEB9F40030207
:2006090006A08C828D83E0F9B961004041E92485403C74E029F582C007C006C005C004C0C1
:2006290003C0021204EFD002D003D004D0058C828D83E0F582C005C004C003C0021208D527
:20064900D002D003D004D005D006D007803C8C828D83E0F582C007C006C005C004C003C0CC
:20066900021204EFD002D003D004D0058C828D83E0F582C005C004C003C0021208D5D002D8
:20068900D003D004D005D006D0070ABA00010B0CBC00010D02060190E68D74FFF000000013
:0B06A900002200000000000000002202
:203E000012010002FFFFFF40030410600100010200010A060002FFFFFF4001000902200059
:203E200001010080320904000002FFFFFF03070501020002000705810200020009022000F2
:203E400001010080320904000002FFFFFF0307050202400000070586024000000403090467
:203E60000603480069000C03540068006500720065000E0369004600720061006D0065001C
:0300BF00752300A6
:2006B400AC82AD83AEF0FFE4B55C0280117401B55C030207597402B55C030207E022BC6007
:2006D4000CBD0909BE0006BF0003020751BCC00BBD1208BE0005BF0002805DBC800BBD2563
:2006F40008BE0005BF0002804ABC000BBD4B08BE0005BF00028037BC800BBD7008BE00053F
:20071400BF00028024BC000BBD9608BE0005BF00028011BC002CBDE129BE0026BF0023753F
:2007340023FD80217523FB801C7523F980177523F680127523EC800D7523D980087523B219
:200754008003752300BC600CBD0909BE0006BF00030207D8BCC00BBD1208BE0005BF00022A
:20077400805DBC800BBD2508BE0005BF0002804ABC000BBD4B08BE0005BF00028037BC80BB
:200794000BBD7008BE0005BF00028024BC000BBD9608BE0005BF00028011BC002CBDE129F7
:2007B400BE0026BF00237523F980217523F6801C7523F380177523EC80127523D9800D7558
:2007D40023B280087523648003752300BC600CBD0909BE0006BF0003020859BCC00BBD125B
:2007F40008BE0005BF00028058BC800BBD2508BE0005BF00028046BC000BBD4B08BE00056C
:20081400BF00028034BC800BBD7008BE0005BF00028022BC000BBD9608BE0005BF00028087
:2008340010BC0025BDE122BE001FBF001C7523F3227523EC227523E6227523D9227523B26B
:2008540022752364227523002275230022D310AF01C3C0D043892000000000C28E000000AE
:1B08740000758DC300000000758B2300000000D0D092AF22D28E0000000022FC
:20088F0043B202AFB274FB5FF5B22243892000000000C28E00000000758D97000000007510
:2008AF008B9700000000221208D912088F12089A1208CF1209F6120936752A00E52B222257
:2008CF00222222222222222222222222AF8243B20453A87FE582C37808C2827917D9FE0078
:2008EF0000139282791FD9FE00D8F6D28243A88074142FF5822243B20422221209E49204A4
:20090F00E433FFBF010122E52A700C90002475F04012099D752A01227401B52B09852582E7
:20092F00120940752B0022903207E4F0903206F022AF82903207E0FE7D008E828D83A3A359
:20094F00A3A3A3755C068D5DC007121C5EAD82AE83D007903206E0FCFA7B00EAB50506EBA6
:20096F00B50602D322EC2400F582E43432F583EFF0903206E0FF7E008F828E83A3755C06CD
:20098F008E5D121C5EAE82903206EEF0C322AD82AE83AFF0903206E0FC903207E0FBECB52E
:2009AF000302D322EB2400F582E43432F583E08D828E838FF01213FB903207E0FF7E008F92
:2009CF00828E83A3755C068E5D121C5EAE82903207EEF0C322903206E0FF903207E0FEEF8B
:2009EF00B50602D322C32290320FE4F090320EF022AF8290320FE0FE7D008E828D83A3A307
:200A0F00A3A3A3755C068D5DC007121C5EAD82AE83D00790320EE0FCFA7B00EAB50506EBDD
:200A2F00B50602D322EC2408F582E43432F583EFF090320EE0FF7E008F828E83A3755C06FC
:200A4F008E5D121C5EAE8290320EEEF0C322AD82AE83AFF090320EE0FC90320FE0FBECB555
:200A6F000302D322EB2408F582E43432F583E08D828E838FF01213FB90320FE0FF7E008FC1
:200A8F00828E83A3755C068E5D121C5EAE8290320FEEF0C32290320FE0FF7E008F828E83AF
:200AAF00A3A3A3A3A3755C068E5D121C5EAE82AF8390320EE0FD7C00B50606ECB50702D3E1
:030ACF0022C3221D
:200AD200AF82BF80028014BF90028018BFA002801CBFB0028020BFB1318027E55C42B2008A
:200AF20000000022E55C42B30000000022E55C42B40000000022E55C42B575B501000000AE
:200B12000022E55C42B60000000022AF82BF80028014BF90028018BFA002801CBFB0028069
:200B320020BFB12E8024E55C42800000000022E55C42900000000022E55C42A000000000C4
:200B520022E55C42B00000000022E55C42B10000000022AF82BF80028014BF90028018BF08
:200B7200A002801CBFB0028020BFB12E8024E55C62800000000022E55C6290000000002238
:1B0B9200E55C62A00000000022E55C62B00000000022E55C62B10000000022F8
:200BAD00752C6553A87F43B2287909742CC2830033C2854005C283020BCCD283020BCCD247
:200BCD0085D9ED43A880C28522F52D85F02E53A87F43B26853B2F7790874397A0033C2852F
:200BED004005C286020BF9D286020BF9F52FEA23D285A28392E0FAE52FD9E243B26853B2AD
:200C0D00BFC2854005C283020C1CD283020C1C000000D285A200A200A200A200A286C28540
:200C2D0043A8808A82E52D852EF022C2830000D285000000D28322F4F422AF82E55C4F4536
:070C4D005DF55C855C82226D
:200C5400858230855CB253A87FD283007908E53033C2854005C283020C73D283020C73D224
:200C740085D9ED43A880D2832253A87F43B22CD283007908741233C2854005C283020C9991
:200C9400D283020C99D285D9EDD28343A8802253A87F75B264D286007908743433C2854005
:150CB40005C286020CBFD286020CBFD285D9EDD28643A88022EA
:200CC9007582681208D590E68AE4F090E68B7403F0753208E532FF14F53270F875320AE583
:200CE90032FF14F53270F875320A90E6B9E0FF601EBF0302803CBF0603020DD1BF09028068
:200D090057BF0B028078BF0C03020DAC020DF690E7407401F090E7417406F090E68AE4F00F
:200D290090E68B7402F090E6A0E0FF74804FF0020DFA90E6A0E0FF74804FF090E7407401BE
:200D4900F090E74104F090E68AE4F090E68B7402F090E6B4F0020DFA90E7407401F090E7FD
:200D69004104F090E68AE4F090E68B7402F090E6B4F090E6A0E0FF74804FF0020DFA90E738
:200D890040E4F090E74104F090E68AE4F090E68B7402F090E6B404F090E6A0E0FF74804FF9
:200DA900F0804E90E7407401F090E741E4F090E68AF090E68B04F090E6B47403F090E6A038
:200DC900E0FF74804FF0802990E740E4F090E74104F090E68AE4F090E68B04F090E6B474B1
:150DE90003F090E6A0E0FF74804FF08004758200227582012223
:200DFE00AF829032257464F0C28C758902BF0002800ABF0102800DBF02188010903224744A
:200E1E00FFF0800E903224743DF08006903224749BF0758C30758A3022903226E4F0903245
:200E3E0026E0FF75F004A42410FD743235F0FE8D828E83A3A3E0FDA3E0FE4D600D90322622
:200E5E00EF04F0E0FFBF050040D4903226E0FFBF0500400122C2AF903227E0FDA3E0FE90A4
:200E7E003227E0F5F0A3E045F06016EF75F004A42410FB743235F0FC8B828C83A3EDF080FA
:200E9E0014EF75F004A42410FE743235F0FF8E828F83A3E4F0903226E075F004A42410FE88
:200EBE00743235F0FF8E828F83A3A3E533F0E534A3F0903226E075F004A4FFAEF02410FC8C
:200EDE00EE3432FD90322CE0FAA3E0EF2410FFEE3432FE8F828E83A3E02A8C828D83F0D235
:200EFE00AF22E582903229F0E0FFBF0500501BC2AFEF75F004A42410FE743235F0FF8E823A
:200F1E008F83A3A3E4F0A3F0D2AF22D2A92243881000000000D2A90000000022903226E470
:200F3E00F0903226E075F004A42410FE743235F0FF74022EFCE43FFD8C828D83E0FAA3E097
:200F5E00FB4A606C8E828F83A3E0FF90322CE0FBA3E0FE7A00C3EF9BEA9E505490322CE4AF
:200F7E00F0A3F08C828D83E0FCA3E0FDC005C0048C828D83120059D004D005C2AF90322642
:200F9E00E075F004A4FFAEF02410FCEE3432FDEF2410FFEE3432FE8F828E83A3E0FF90324E
:200FBE002CE0FBA3E0FEEB2FFF8C828D83F0D2AF903226E02401F0E0FFBF05005003020FFF
:020FDE003F22B0
:021D740000006D
:06008A00E478FFF6D8FD4A
:1200C20075360075370075383C75393E753A1C753B3E47
:200FE00090E6B9E0FF24F450030210E6EF240A83F582EF241083F583E4731228E63EE6E6CA
:2010000054E6647B93C7101010101010101010101010121160E58260030210FC90E6A0E04C
:20102000FF74014FF00210FC1211EDE58260030210FC90E6A0E0FF74014FF00210FC12122C
:201040005CE58260030210FC90E6A0E0FF74014FF00210FC12017AE58260030210FC12131B
:201060000C0210FC120310AF8290E740EFF090E68AE4F090E68B04F00210FC90E6BAE0F58E
:2010800082120314E582707490E6A0E0FF74014FF0806990E6BCE0FF751835751900751AD8
:2010A000408F821201F2E582700B90E6A0E0FF74014FF0804790E740E535F090E68AE4F0F3
:2010C00090E68B04F0803590E6BCE0FF90E6BAE0F51B8F82120228E582702190E6A0E0FFFB
:2010E00074014FF0801690E6B9E0F58212017EE582700990E6A0E0FF74014FF090E6A0E010
:20110000FF74804FF022AF828F0653067FEE24F7500302115CEE240A83F582EE240D83F565
:2011200083E47335394C5C505C545C5811111111111111111190E6A022EF30E7067EA27F8F
:20114000E680047EA17FE68E828F832290E6A32290E6A42290E6A52290E6A62290000022B9
:2011600090E6B8E0FFBF8002801FBF81028005BF8273803490E740E4F090E741F090E68A20
:20118000F090E68B7402F08060E53725E0FFE536420790E740EFF090E741E4F090E68AF082
:2011A00090E68B7402F0804190E6BCE0F582121106AE82AF838E048F05EE4F7003F5822284
:2011C0008C828D83E0FC30E0047F0180027F0090E740EFF090E741E4F090E68AF090E68B6D
:2011E0007402F08004758200227582012290E6B8E0FF6005BF0258801B90E6BAE0FFBF01DD
:2012000005753700805290E6BAE0FFBF060280487582002290E6BAE0703190E6BCE0F5825A
:20122000121106AE82AF83E0FD5305FE8E828F83EDF090E6BCE0FF30E70343071053071FF3
:2012400090E683EFF074204FF0800D7582002290E6B9E0F58202017E7582012290E6B8E00E
:20126000FF6005BF026E802690E6BAE0FFBF02030212DD90E6BAE0FFBF0105753701805D13
:2012800090E6BAE0FFBF060280537582002290E6BAE0703C90E6BCE0F582121106AE82AF3F
:2012A00083EE4F7003F582228E828F83E0FD4305018E828F83EDF090E6BCE0FF30E70343AD
:2012C000071053071F90E683EFF074204FF0800D7582002290E6B9E0F58202017E7582012E
:2012E00022D310AF01C3C0D0E582FF600E75381C75393E753A3C753B3E800C75383C753961
:201300003E753A1C753B3ED0D092AF2290E6B57401F090E6BBE0FFBF01028019BF02028095
:2013200029BF03028033BF06030213CDBF07030213E20213F17E007F3E8F0690E6B3EEF0C6
:201340007E007F3E90E6B4EEF022AF3990E6B3EFF0AE3890E6B4EEF0227D5C7E3E7F809004
:20136000E6BAE0F55C7B008B020BEAB55C0280428D008E018F028D828E838FF0121BD42855
:20138000F8E439F9880589068A0774012DF9E43EFA8F0489828A838CF0121BD4F9B90302FC
:2013A00080067D007E007F00ED4E6006C3E55C9B50B5ED4E600D8E0790E6B3EFF090E6B479
:2013C000EDF02290E6A0E0FF74014FF0227E127F3E8F0690E6B3EEF07E127F3E90E6B4EEF5
:1B13E000F022AF3B90E6B3EFF0AE3A90E6B4EEF02290E6A0E0FF74014FF02211
:200068007904E94400601B7A01901D72782A759232E493F2A308B800020592D9F4DAF2756B
:0200880092FFE5
:1B13FB0020F71130F6138883A88220F509F6A8837583002280FEF280F5F022F1
:20310000020322000202BF00021C9800021D0200020375000203C400021C950002146E0074
:2031200002147000021471000214720002147500021D0800021D09000214160002141800C6
:20314000021C9A0002146E00021C9400021C9600021C9700021C9900021C9B00021D010088
:20316000021BBB0002146E0002146E0002146E0002146F00021473000214760002147800C3
:203180000214740002147700021479000215B500021466000214680002146A0002146C00C1
:1831A000021467000214690002146B0002146D0002141700021D0700C4
:0114160032A3
:0114170032A2
:0114180032A1
:20141900E55C455D60467A01E55C25E0F55CE55D334012F55DE582955CE583955D40030A00
:2014390080E6C3E55D13F55DE55C13F55CC3E582955CF5F0E583955D4005F58385F082C34D
:0D145900E55D13F55DE55C13F55CDAE1225D
:011466003253
:011467003252
:200090007800E84400600A7900759232E4F309D8FC782AE84400600C7901903200E4F0A3EF
:0400B000D8FCD9FAA5
:011468003251
:011469003250
:01146A00324F
:01146B00324E
:01146C00324D
:01146D00324C
:01146E00324B
:01146F00324A
:011470003249
:011471003248
:011472003247
:011473003246
:011474003245
:011475003244
:011476003243
:011477003242
:011478003241
:011479003240
:20147A00D310AF01C3C0D085823C85833D85F03EF53F90E600E05418C423541FFB70047BF7
:20149A0001801690E600E05418C423541FFABA01047A0280027A048A03D2CDD2CC8B5C7524
:2014BA005D00755E00755F009071B075F00BE4C003121BF0853C5C853D5D853E5E853F5FA9
:2014DA00121C9CA882A983AAF0FFD00308B8000909B900050ABA00010FEFC313EA13FAE95D
:2014FA0013F9E813F874FFC398F874FF99FF8FCB7900EB60027401FFEF28F5CAD2CAC29F9B
:20151A00D29EC29DD29C438780D299D0D092AF223098FD859982C29822AF8210990280FB84
:20153A008F9922AF82BF0A0A75820DC007121533D0078F82C007121533D007BF0D06758275
:05155A000A0215332216
:20155F00AE82AF8390E600E05418C423541FFD70057CB1FD801C90E600E05418C423541F9A
:20157F00FBBB01067A617B0180047AC27B028A048B058C5C8D5D155C74FFB55C02155DE5BD
:16159F005C455D70F1EE24FFFAEF34FFFB8A068B07EA4B70DD22E9
:0115B5003203
:02005900E4734E
:2015B600C05B85815B12153DD05B2285825085835185F052E4F54DF54EF54F854053901507
:2015D600B60216B1C05B85815BE55B24FBFF8F53E4F54DF54EF54FE55B24FBF88650088652
:0D15F600510886529015B61216B1D05B2236
:20160300AF82C043C044C0451216108007C041C0428F8222158115811581054BE4B54B029D
:20162300054C22AF8274302FFF24C6500A74072FFF3005034307208F82021603E582FFC44C
:20164300540FF582C007121626D007740F5FF58202162685825C85465D85475E85485F85C4
:201663004960AA4A756120EA2AFAE560235401FF8A064EFAE55D255DF55DE55E33F55EE56E
:201683005F33F55FE56033F560C3EA955C4008EAC3955CFA435D01E56114FF8F6170C8856F
:2016A3005D46855E47855F488560498A4A22858241858342854D43854E44854F45E4F54B0F
:2016C300F54CAD50AE51AF528D828E838FF0121BD4FC74012DF550E43EF5518F52ECFF70A2
:2016E30003021BB4BF25028003021BACC206C207C208C209C20AC20BC20CC20D7554007547
:2017030055007CFFAA50AB51AE528A828B838EF0121BD4FFA3AA82AB838A508B518E52BF16
:2017230025078F8212160380998F5774D025575026E55724C64020BCFF12E55575F00AA469
:20174300FD2F24D0F55570C2D20780BEEC75F00AA42F24D0FC80B3BF2E07BCFFAD7C00802A
:20176300A98F05BD6100400CED248540075307DFD2058002C205BF2002806DBF2B028063EC
:20178300BF2D028059BF42028063BF43028068BF4403021956BF460302196CBF4803021784
:2017A3000DBF4903021956BF4A0302170DBF4C028040BF4F0302195DBF50030218EBBF53EC
:2017C30002805CBF540302170DBF5503021962BF5803021967BF5A0302170D021970D20617
:2017E30002170DD20802170DD20902170DD20B02170DD20C02170D300B0CE55314FE8E5346
:201803008E0187078011E55324FEFE8E538E018705098706198D078F82121603021979E5CB
:201823005324FDFE8E538E01870309870509870619198B468D478E488B828D838EF0C00402
:20184300121BBCAD82AE83D004BCFF028D0420062AC3ED95555024E555C39DF555AE558E47
:20186300031EEB6014758220C006C005C004121603D004D005D00680E68E558C06854682AD
:201883008547838548F0121BD4FCFF602F8E041EC374808CF063F08095F050208F82C0062C
:2018A300C005121603D005D006AA46AB47AC480ABA00010B8A468B478C4880C12006030202
:2018C3001979C3ED95554003021979E555C39DF555AE558E041EEC7003021977758220C0A3
:2018E30006121603D00680EBE55324FDFC8C538C01870209870309870419198A468B478CA2
:2019030048AC48BC800040047F438014BC600040047F50800BBC400040047F4980027F5897
:201923008F82C00712160375823A121603758230121603758278121603D007BF4902800BED
:20194300BF5002800685478212163F85468212163F8023D20A75540A801C755408801775B9
:20196300540A8012755410800DD20D80098F8212160380028E55300D5CE55324FCFE8E5335
:201983008E0187020987030987040987061919198A468B478C488E4975466775471D75481F
:2019A3008085465885475985485A74012558FAE43559FCAE5A8A468C478E4885588285591D
:2019C30083855AF0121BD4FEFF70030216C58F8212160380CCE55470030216C575566730F1
:2019E3000B2DE55314FC8C538C01E7FA3395E0FBFCFE8A468B478C488E49200A66AA467B32
:201A0300007C007E008A468B478C488E498054300C21E55324FCFE8E538E01870209870369
:201A23000987040987061919198A468B478C488E498030E55324FEFE8E538E01870409874E
:201A43000619EE3395E0FBFA8C468E478B488A49200A10AA46AB477C007E008A468B478C48
:201A6300488E49300A22E54930E71BC3E49546FAE49547FBE49548FCE49549FE8A468B4732
:201A83008C488E498002C20AD20EA9567E00754A00855482C006C001121656D001D0062007
:201AA3000E0BE54AC4FCE7FB4CF7198002A74A0EB20EE54645474548454970D289568E0516
:201AC300E5557003755501200724200621ED04FEAC55C3EE9C5015758220C006C005C004F1
:201AE300121603D004D005D0061C80E68C55300A0E75822DC005121603D00515558023EDAB
:201B0300602030080E75822BC005121603D0051555800F30090C758220C005121603D005FB
:201B23001555200622AE558E041EC3ED9C502B3007047C3080027C208C82C006C0051216B0
:201B430003D005D00680E0C3ED95555008E555C39DF555800775550080028E55A9568D0656
:201B63008E051EED6026B20E200E0A09E7C4540FFD8D4A80078705740F5DF54A854A82C018
:201B830006C001121626D001D00680D42006030216C5AE558E051EED70030216C575822024
:181BA300C006121603D00680EB8F821216030216C5854B82854C832217
:0B1D67003C4E4F20464C4F41543E00C4
:011BBB0032F7
:181BBC00AA82AB83121BD46003A380F8C3E5829AF582E5839BF5832260
:0D005B00758167121D03E5826003020056E7
:1C1BD40020F71430F6148883A88220F507E6A88375830022E280F7E49322E02220
:201BF000AAF0FBE582855CF0A4FCADF0E583855CF0A42DFDE435F0FEE582855DF0A42DFDB6
:201C1000E5F03EFEE433FFEA855CF0A42EFEE5F03FFFE583855DF0A42EFEE5F03FFFE5826B
:201C3000855EF0A42EFEE5F03FFFEB855CF0A42FFFEA855DF0A42FFFE583855EF0A42FFFB5
:0E1C5000E582855FF0A42F8EF08D838C8222BA
:201C5E00C2D5E58330E70DD2D5E4C39582F582E49583F583E55D30E70BE4C3955CF55CE4C2
:161C7E00955DF55D12141930D50BE4C39582F582E49583F58322F2
:011C9400321D
:011C9500321C
:011C9600321B
:011C9700321A
:011C98003219
:011C99003218
:011C9A003217
:011C9B003216
:201C9C00FB7A20E4FCFDFEFFE5822582F582E58333F583E5F033F5F0EB33FB4017DAE98081
:201CBC0042E5822582F582E58333F583E5F033F5F0EB33FBEC33FCED33FDEE33FEEF33FFB0
:201CDC00EC955CED955DEE955EEF955F4013EC955CFCED955DFDEE955EFEEF955FFF4382DA
:051CFC0001DABEEB223D
:011D010032AF
:011D020032AE
:041D030075820022C3
:011D070032A9
:011D080032A8
:011D090032A7
:00000001FF
