:0400000002005B326D
:03000B0002049F4D
:0100130032BA
:03001B0002040DCF
:0100230032AA
:01002B0032A2
:01003300329A
:01003B003292
:0300430002310087
:01004B003282
:0300530002310077
:0300D400020056D1
:030056000200D7CE
:2000D700C201C200E4F510F51190E680E0FF740A4FF09005DC12150290E680E0FF74F75FCA
:2000F700F01205B4755C007582B0120A7B90E100E4F5F012141DD2E890E668E0FF74084F60
:20011700F090E65CE0FF74014FF0E0FF74024FF0E0FF74204FF0E0FF74104FF0D2AF903248
:20013700257405F0758202120DA1120ECF9032277414F0E4A3F07533BC753404120DDA127E
:200157000877120849D2ABD28C120EDD1208D01208B3E51360F3120F83151380EC7582009D
:2001770022AF82BFB14D90E6BAE0F5821210A9AD82AE83E0FC7B00C006C005C004C00374C9
:20019700ADC0E0741CC0E07480C0E012157DE58124FBF581D005D006ED4E60358D828E83FD
:2001B700E090E740F090E68AE4F090E68B04F075820122C007120C727E00C00674B6C0E059
:2001D700741CC0E07480C0E012157DE58124FBF58175820022AF82C00774DEC0E0741CC052
:2001F700E07480C0E012157D158115811581D007EF7014AD18AE19AF1A8D828E838FF0E4EC
:2002170012139E7582012275820022AF82AD1B7E008F037C00C007C005C006C003C00474FF
:20023700EDC0E0741CC0E07480C0E012157DE58124F9F581D007EF7065E51B706190E68354
:200257007402F07422F07416F07436F090E6047480F00000000090E6047482F000000000C9
:2002770090E604E4F00000000090E6917480F00000000090E6917480F00000000090E604C9
:200297007480F00000000090E6047486F00000000090E604E4F000000000758201227582A0
:2002B7000022C0E0C082C083C0D075D00890322AE02401F0A3E03400F090322AE0FEA3E02E
:2002D700FFBE4019BF1F16B2033003067592B8E280047592B0E290322AE4F0A3F0AF91744A
:2002F700EF5FF59190E65D7402F0D0D0D083D082D0E03275820122AF82BF01047F018002A2
:200317007F008F8222C022C0E0C0F0C082C083C007C006C005C004C003C002C001C000C081
:20033700D075D00012066C12066CD2010513AF9174EF5FF59190E65D7401F0D0D0D000D09E
:2003570001D002D003D004D005D006D007D083D082D0F0D0E0D02232C022C0E0C0F0C082DD
:20037700C083C007C006C005C004C003C002C001C000C0D075D000758200121284AF9174DF
:20039700EF5FF59190E65D7410F0D0D0D000D001D002D003D004D005D006D007D083D0824A
:2003B700D0F0D0E0D02232C022C0E0C0F0C082C083C007C006C005C004C003C002C001C0BF
:2003D70000C0D075D000758201121284AF9174EF5FF59190E65D7420F0D0D0D000D001D0A1
:2003F70002D003D004D005D006D007D083D082D0F0D0E0D02232C0E0C0D00526E5265403C5
:20041700600280337401B52A2B43B21005287401B52804C284801DE52824FE500FE5282407
:20043700F54009E524139284F5248008D284752800752A007526000527E52B701053B2DFC7
:20045700A2854009752700752900752B02E52754036002802E7402B52B0280057403B52B92
:200477001F752B0353B2DF052974F625294009E525A28513F5258008A285752900752B0144
:20049700752700D0D0D0E032C0E0C082C083C0D090322CE02401F0A3E03400F0D0D0D083F5
:0B04B700D082D0E03275B208B2832280
:201CAD00657020253032780A004E65656420746F20696D706C656D656E742076656E646F73
:201CCD007220636F6D6D616E643A20253032780A0047657420496E746572666163650A0048
:1D1CED0053657420696E7465726661636520256420746F20616C743A2025640A00E3
:021D15000000CC
:0B00B400E4F51CF51D751E40751F9C37
:2004C200AF8874CF5FF58890E7C07431F090E7C17401F000000000AF1C90E68F74022FF0F6
:2004E200E4F51CF51D22AF82E51C24C0FDE51D34E7FE74022DFDE43EFE90E6A2E0FC20E1EE
:20050200F88D828E83EFF0051CE4B51C02051DC3E51C943EE51D940040031204C2E51C455B
:200522001D6019E58820E41474FFC3951EFE74FF951FFD8D8C7F008E8A438810222290E64E
:20054200007410F00000000090E60174C0F00000000090E60B7403F00000000090E61074A8
:20056200A0F00000000090E61174A0F00000000090E612E4F00000000090E613E4F00000A5
:20058200000090E614E4F00000000090E615E4F00000000090E68D74FFF090E6B57401F0A6
:2005A20075A880F5E890E65CF090E670E4F075B2012290E680E0FF74084FF012054090E69C
:2005C20080E0FF74024FF0E0FF74F75FF0AF8E74F75FF58E438901AF8874CF5FF58822900D
:2005E200E68DE0FE7F0074012480FCE434E7FD1EBEFF011F7A007B00C3EA9EEB9F50608C17
:20060200828D83E0F9B961004027E92485402274E029F582C007C006C005C004C003C00269
:200622001204E8D002D003D004D005D006D00780228C828D83E0F582C007C006C005C00492
:20064200C003C0021204E8D002D003D004D005D006D0070ABA00010B0CBC009C0D80999030
:13066200E68D74FFF000000000220000000000000000226B
:203E000012010002FFFFFF40030410600100010200010A060002FFFFFF4001000902200059
:203E200001010080320904000002FFFFFF03070501020002000705810200020009022000F2
:203E400001010080320904000002FFFFFF0307050202400000070586024000000403090467
:203E60000603480069000C03540068006500720065000E0369004600720061006D0065001C
:0300BF00752300A6
:20067500AC82AD83AEF0FFE4B55C0280117401B55C0302071A7402B55C030207A122BC60C4
:200695000CBD0909BE0006BF0003020712BCC00BBD1208BE0005BF0002805DBC800BBD25E1
:2006B50008BE0005BF0002804ABC000BBD4B08BE0005BF00028037BC800BBD7008BE00057E
:2006D500BF00028024BC000BBD9608BE0005BF00028011BC002CBDE129BE0026BF0023757F
:2006F50023FD80217523FB801C7523F980177523F680127523EC800D7523D980087523B259
:200715008003752300BC600CBD0909BE0006BF0003020799BCC00BBD1208BE0005BF0002A8
:20073500805DBC800BBD2508BE0005BF0002804ABC000BBD4B08BE0005BF00028037BC80FA
:200755000BBD7008BE0005BF00028024BC000BBD9608BE0005BF00028011BC002CBDE12936
:20077500BE0026BF00237523F980217523F6801C7523F380177523EC80127523D9800D7597
:2007950023B280087523648003752300BC600CBD0909BE0006BF000302081ABCC00BBD12D9
:2007B50008BE0005BF00028058BC800BBD2508BE0005BF00028046BC000BBD4B08BE0005AB
:2007D500BF00028034BC800BBD7008BE0005BF00028022BC000BBD9608BE0005BF000280C7
:2007F50010BC0025BDE122BE001FBF001C7523F3227523EC227523E6227523D9227523B2AB
:2008150022752364227523002275230022D310AF01C3C0D043892000000000C28E000000ED
:1B08350000758DC300000000758B2300000000D0D092AF22D28E00000000223B
:2008500043B202AFB274FB5FF5B22243892000000000C28E00000000758D9700000000754F
:200870008B97000000002212085012085B12099F1208DF752A00E52B22AF8243B20453A89C
:200890007FE582C37808C2827917D9FE0000139282791FD9FE00D8F6D28243A88074142F9A
:2008B000F5822212098D9204E433FFBF010122E52A700C90002475F040120946752A012251
:2008D0007401B52B098525821208E9752B0022903207E4F0903206F022AF82903207E0FE6A
:2008F0007D008E828D83A3A3A3A3A3755C068D5DC007121C01AD82AE83D007903206E0FC8A
:20091000FA7B00EAB50506EBB50602D322EC2400F582E43432F583EFF0903206E0FF7E00BE
:200930008F828E83A3755C068E5D121C01AE82903206EEF0C322AD82AE83AFF0903206E08F
:20095000FC903207E0FBECB50302D322EB2400F582E43432F583E08D828E838FF012139EC2
:20097000903207E0FF7E008F828E83A3755C068E5D121C01AE82903207EEF0C32290320607
:20099000E0FF903207E0FEEFB50602D322C32290320FE4F090320EF022AF8290320FE0FED4
:2009B0007D008E828D83A3A3A3A3A3755C068D5DC007121C01AD82AE83D00790320EE0FCC1
:2009D000FA7B00EAB50506EBB50602D322EC2408F582E43432F583EFF090320EE0FF7E00EE
:2009F0008F828E83A3755C068E5D121C01AE8290320EEEF0C322AD82AE83AFF090320EE0BF
:200A1000FC90320FE0FBECB50302D322EB2408F582E43432F583E08D828E838FF012139EF1
:200A300090320FE0FF7E008F828E83A3755C068E5D121C01AE8290320FEEF0C32290320F2D
:200A5000E0FF7E008F828E83A3A3A3A3A3755C068E5D121C01AE82AF8390320EE0FD7C005C
:0B0A7000B50606ECB50702D322C32236
:200A7B00AF82BF80028014BF90028018BFA002801CBFB0028020BFB1318027E55C42B200E1
:200A9B0000000022E55C42B30000000022E55C42B40000000022E55C42B575B50100000005
:200ABB000022E55C42B60000000022AF82BF80028014BF90028018BFA002801CBFB00280C1
:200ADB0020BFB12E8024E55C42800000000022E55C42900000000022E55C42A0000000001C
:200AFB0022E55C42B00000000022E55C42B10000000022AF82BF80028014BF90028018BF60
:200B1B00A002801CBFB0028020BFB12E8024E55C62800000000022E55C629000000000228F
:1B0B3B00E55C62A00000000022E55C62B00000000022E55C62B100000000224F
:200B5600752C6553A87F43B2287909742CC2830033C2854005C283020B75D283020B75D24C
:200B760085D9ED43A880C28522F52D85F02E53A87F43B26853B2F7790874397A0033C28586
:200B96004005C286020BA2D286020BA2F52FEA23D285A28392E0FAE52FD9E243B26853B2B2
:200BB600BFC2854005C283020BC5D283020BC5000000D285A200A200A200A200A286C28548
:200BD60043A8808A82E52D852EF022C2830000D285000000D28322F4F422AF82E55C4F458E
:070BF6005DF55C855C8222C5
:200BFD00858230855CB253A87FD283007908E53033C2854005C283020C1CD283020C1CD22A
:200C1D0085D9ED43A880D2832253A87F43B22CD283007908741233C2854005C283020C423F
:200C3D00D283020C42D285D9EDD28343A8802253A87F75B264D286007908743433C28540B3
:150C5D0005C286020C68D286020C68D285D9EDD28643A88022EF
:200C720090E68AE4F090E68B7403F0753208E532FF14F53270F875320AE532FF14F532704C
:200C9200F875320A90E6B9E0FF601EBF0302803CBF0603020D74BF09028057BF0B028078DD
:200CB200BF0C03020D4F020D9990E7407401F090E7417406F090E68AE4F090E68B7402F0D5
:200CD20090E6A0E0FF74804FF0020D9D90E6A0E0FF74804FF090E7407401F090E74104F03E
:200CF20090E68AE4F090E68B7402F090E6B4F0020D9D90E7407401F090E74104F090E68A19
:200D1200E4F090E68B7402F090E6B4F090E6A0E0FF74804FF0020D9D90E740E4F090E74155
:200D320004F090E68AE4F090E68B7402F090E6B404F090E6A0E0FF74804FF0804E90E740A7
:200D52007401F090E741E4F090E68AF090E68B04F090E6B47403F090E6A0E0FF74804FF0F2
:200D7200802990E740E4F090E74104F090E68AE4F090E68B04F090E6B47403F090E6A0E031
:0F0D9200FF74804FF08004758200227582012269
:200DA100AF829032257464F0C28C758902BF0002800ABF0102800DBF0218801090322474A7
:200DC100FFF0800E903224743DF08006903224749BF0758C30758A3022903226E4F09032A3
:200DE10026E0FF75F004A42410FD743235F0FE8D828E83A3A3E0FDA3E0FE4D600D90322680
:200E0100EF04F0E0FFBF050040D4903226E0FFBF0500400122C2AF903227E0FDA3E0FE9001
:200E21003227E0F5F0A3E045F06016EF75F004A42410FB743235F0FC8B828C83A3EDF08057
:200E410014EF75F004A42410FE743235F0FF8E828F83A3E4F0903226E075F004A42410FEE5
:200E6100743235F0FF8E828F83A3A3E533F0E534A3F0903226E075F004A4FFAEF02410FCE9
:200E8100EE3432FD90322CE0FAA3E0EF2410FFEE3432FE8F828E83A3E02A8C828D83F0D292
:200EA100AF22E582903229F0E0FFBF0500501BC2AFEF75F004A42410FE743235F0FF8E8297
:200EC1008F83A3A3E4F0A3F0D2AF22D2A92243881000000000D2A90000000022903226E4CE
:200EE100F0903226E075F004A42410FE743235F0FF74022EFCE43FFD8C828D83E0FAA3E0F5
:200F0100FB4A606C8E828F83A3E0FF90322CE0FBA3E0FE7A00C3EF9BEA9E505490322CE40C
:200F2100F0A3F08C828D83E0FCA3E0FDC005C0048C828D83120059D004D005C2AF9032269F
:200F4100E075F004A4FFAEF02410FCEE3432FDEF2410FFEE3432FE8F828E83A3E0FF9032AB
:200F61002CE0FBA3E0FEEB2FFF8C828D83F0D2AF903226E02401F0E0FFBF05005003020E5D
:020F8100E2226A
:021D17000000CA
:06008A00E478FFF6D8FD4A
:1200C20075360075370075383C75393E753A1C753B3E47
:200F830090E6B9E0FF24F45003021089EF240A83F582EF241083F583E473B5CB89E18989B2
:200FA300F789071E366A0F0F100F10100F1010101010121103E582600302109F90E6A0E096
:200FC300FF74014FF002109F121190E582600302109F90E6A0E0FF74014FF002109F1211FF
:200FE300FFE582600302109F90E6A0E0FF74014FF002109F120174E582600302109F1212F4
:20100300AF02109F12030AAF8290E740EFF090E68AE4F090E68B04F002109F90E6BAE0F508
:201023008212030EE582707490E6A0E0FF74014FF0806990E6BCE0FF751835751900751A3B
:20104300408F821201ECE582700B90E6A0E0FF74014FF0804790E740E535F090E68AE4F056
:2010630090E68B04F0803590E6BCE0FF90E6BAE0F51B8F82120222E582702190E6A0E0FF5E
:2010830074014FF0801690E6B9E0F582120178E582700990E6A0E0FF74014FF090E6A0E073
:2010A300FF74804FF022AF828F0653067FEE24F750030210FFEE240A83F582EE240D83F521
:2010C30083E473D8DCEFFFF3FFF7FFFB10101010101010101090E6A022EF30E7067EA27F3B
:2010E300E680047EA17FE68E828F832290E6A32290E6A42290E6A52290E6A6229000002217
:2011030090E6B8E0FFBF8002801FBF81028005BF8273803490E740E4F090E741F090E68A7D
:20112300F090E68B7402F08060E53725E0FFE536420790E740EFF090E741E4F090E68AF0DF
:2011430090E68B7402F0804190E6BCE0F5821210A9AE82AF838E048F05EE4F7003F582223F
:201163008C828D83E0FC30E0047F0180027F0090E740EFF090E741E4F090E68AF090E68BCA
:201183007402F08004758200227582012290E6B8E0FF6005BF0258801B90E6BAE0FFBF013A
:2011A30005753700805290E6BAE0FFBF060280487582002290E6BAE0703190E6BCE0F582B8
:2011C3001210A9AE82AF83E0FD5305FE8E828F83EDF090E6BCE0FF30E70343071053071FAF
:2011E30090E683EFF074204FF0800D7582002290E6B9E0F5820201787582012290E6B8E072
:20120300FF6005BF026E802690E6BAE0FFBF020302128090E6BAE0FFBF0105753701805DCD
:2012230090E6BAE0FFBF060280537582002290E6BAE0703C90E6BCE0F5821210A9AE82AFFA
:2012430083EE4F7003F582228E828F83E0FD4305018E828F83EDF090E6BCE0FF30E703430A
:20126300071053071F90E683EFF074204FF0800D7582002290E6B9E0F58202017875820191
:2012830022D310AF01C3C0D0E582FF600E75381C75393E753A3C753B3E800C75383C7539BE
:2012A3003E753A1C753B3ED0D092AF2290E6B57401F090E6BBE0FFBF01028019BF020280F3
:2012C30029BF03028033BF0603021370BF07030213850213947E007F3E8F0690E6B3EEF03B
:2012E3007E007F3E90E6B4EEF022AF3990E6B3EFF0AE3890E6B4EEF0227D5C7E3E7F809062
:20130300E6BAE0F55C7B008B020BEAB55C0280428D008E018F028D828E838FF0121B77280F
:20132300F8E439F9880589068A0774012DF9E43EFA8F0489828A838CF0121B77F9B90302B6
:2013430080067D007E007F00ED4E6006C3E55C9B50B5ED4E600D8E0790E6B3EFF090E6B4D6
:20136300EDF02290E6A0E0FF74014FF0227E127F3E8F0690E6B3EEF07E127F3E90E6B4EE52
:1B138300F022AF3B90E6B3EFF0AE3A90E6B4EEF02290E6A0E0FF74014FF0226E
:200068007904E94400601B7A01901D15782A759232E493F2A308B800020592D9F4DAF275C8
:0200880092FFE5
:1B139E0020F71130F6138883A88220F509F6A8837583002280FEF280F5F0224E
:2031000002031C000202B900021C3B00021CA50002036F000203BE00021C38000214110001
:2031200002141300021414000214150002141800021CAB00021CAC000213B9000213BB00B2
:20314000021C3D0002141100021C3700021C3900021C3A00021C3C00021C3E00021CA40071
:20316000021B5E0002141100021411000214110002141200021416000214190002141B00AB
:203180000214170002141A0002141C00021558000214090002140B0002140D0002140F00A9
:1831A00002140A0002140C0002140E00021410000213BA00021CAA00F4
:0113B9003201
:0113BA003200
:0113BB0032FF
:2013BC00E55C455D60467A01E55C25E0F55CE55D334012F55DE582955CE583955D40030A5E
:2013DC0080E6C3E55D13F55DE55C13F55CC3E582955CF5F0E583955D4005F58385F082C3AB
:0D13FC00E55D13F55DE55C13F55CDAE122BB
:0114090032B0
:01140A0032AF
:200090007800E84400600A7900759232E4F309D8FC782AE84400600C7901903200E4F0A3EF
:0400B000D8FCD9FAA5
:01140B0032AE
:01140C0032AD
:01140D0032AC
:01140E0032AB
:01140F0032AA
:0114100032A9
:0114110032A8
:0114120032A7
:0114130032A6
:0114140032A5
:0114150032A4
:0114160032A3
:0114170032A2
:0114180032A1
:0114190032A0
:01141A00329F
:01141B00329E
:01141C00329D
:20141D00D310AF01C3C0D085823C85833D85F03EF53F90E600E05418C423541FFB70047B54
:20143D0001801690E600E05418C423541FFABA01047A0280027A048A03D2CDD2CC8B5C7581
:20145D005D00755E00755F009071B075F00BE4C003121B93853C5C853D5D853E5E853F5F63
:20147D00121C3FA882A983AAF0FFD00308B8000909B900050ABA00010FEFC313EA13FAE917
:20149D0013F9E813F874FFC398F874FF99FF8FCB7900EB60027401FFEF28F5CAD2CAC29FF8
:2014BD00D29EC29DD29C438780D299D0D092AF223098FD859982C29822AF8210990280FBE2
:2014DD008F9922AF82BF0A0A75820DC0071214D6D0078F82C0071214D6D007BF0D0675828F
:0514FD000A0214D622D2
:20150200AE82AF8390E600E05418C423541FFD70057CB1FD801C90E600E05418C423541FF7
:20152200FBBB01067A617B0180047AC27B028A048B058C5C8D5D155C74FFB55C02155DE51A
:161542005C455D70F1EE24FFFAEF34FFFB8A068B07EA4B70DD2246
:011558003260
:02005900E4734E
:20155900C05B85815B1214E0D05B2285825085835185F052E4F54DF54EF54F8540539015C2
:2015790059021654C05B85815BE55B24FBFF8F53E4F54DF54EF54FE55B24FBF88650088669
:0D15990051088652901559121654D05B224D
:2015A600AF82C043C044C0451215B38007C041C0428F8222158115811581054BE4B54B0259
:2015C600054C22AF8274302FFF24C6500A74072FFF3005034307208F820215A6E582FFC408
:2015E600540FF582C0071215C9D007740F5FF5820215C985825C85465D85475E85485F85DE
:201606004960AA4A756120EA2AFAE560235401FF8A064EFAE55D255DF55DE55E33F55EE5CB
:201626005F33F55FE56033F560C3EA955C4008EAC3955CFA435D01E56114FF8F6170C885CC
:201646005D46855E47855F488560498A4A22858241858342854D43854E44854F45E4F54B6C
:20166600F54CAD50AE51AF528D828E838FF0121B77FC74012DF550E43EF5518F52ECFF705C
:2016860003021B57BF25028003021B4FC206C207C208C209C20AC20BC20CC20D755400755E
:2016A60055007CFFAA50AB51AE528A828B838EF0121B77FFA3AA82AB838A508B518E52BFD1
:2016C60025078F821215A680998F5774D025575026E55724C64020BCFF12E55575F00AA425
:2016E600FD2F24D0F55570C2D20780BEEC75F00AA42F24D0FC80B3BF2E07BCFFAD7C008088
:20170600A98F05BD6100400CED248540075307DFD2058002C205BF2002806DBF2B02806349
:20172600BF2D028059BF42028063BF43028068BF44030218F9BF460302190FBF480302169D
:20174600B0BF49030218F9BF4A030216B0BF4C028040BF4F03021900BF500302188EBF531C
:2017660002805CBF54030216B0BF5503021905BF580302190ABF5A030216B0021913D20647
:201786000216B0D2080216B0D2090216B0D20B0216B0D20C0216B0300B0CE55314FE8E5379
:2017A6008E0187078011E55324FEFE8E538E018705098706198D078F821215A602191CE5E4
:2017C6005324FDFE8E538E01870309870509870619198B468D478E488B828D838EF0C00460
:2017E600121B5FAD82AE83D004BCFF028D0420062AC3ED95555024E555C39DF555AE558E02
:20180600031EEB6014758220C006C005C0041215A6D004D005D00680E68E558C0685468268
:201826008547838548F0121B77FCFF602F8E041EC374808CF063F08095F050208F82C006E6
:20184600C0051215A6D005D006AA46AB47AC480ABA00010B8A468B478C4880C120060302BD
:20186600191CC3ED9555400302191CE555C39DF555AE558E041EEC700302191A758220C017
:20188600061215A6D00680EBE55324FDFC8C538C01870209870309870419198A468B478C5D
:2018A60048AC48BC800040047F438014BC600040047F50800BBC400040047F4980027F58F5
:2018C6008F82C0071215A675823A1215A67582301215A67582781215A6D007BF4902800BC3
:2018E600BF500280068547821215E28546821215E28023D20A75540A801C755408801775D3
:20190600540A8012755410800DD20D80098F821215A680028E55300D5CE55324FCFE8E53F0
:201926008E0187020987030987040987061919198A468B478C488E4975460A75471D7548D9
:201946008085465885475985485A74012558FAE43559FCAE5A8A468C478E4885588285597A
:2019660083855AF0121B77FEFF70030216688F821215A680CCE554700302166875566730C3
:201986000B2DE55314FC8C538C01E7FA3395E0FBFCFE8A468B478C488E49200A66AA467B8F
:2019A600007C007E008A468B478C488E498054300C21E55324FCFE8E538E018702098703C7
:2019C6000987040987061919198A468B478C488E498030E55324FEFE8E538E0187040987AC
:2019E6000619EE3395E0FBFA8C468E478B488A49200A10AA46AB477C007E008A468B478CA6
:201A0600488E49300A22E54930E71BC3E49546FAE49547FBE49548FCE49549FE8A468B478F
:201A26008C488E498002C20AD20EA9567E00754A00855482C006C0011215F9D001D00620C2
:201A46000E0BE54AC4FCE7FB4CF7198002A74A0EB20EE54645474548454970D289568E0573
:201A6600E5557003755501200724200621ED04FEAC55C3EE9C5015758220C006C005C0044E
:201A86001215A6D004D005D0061C80E68C55300A0E75822DC0051215A6D00515558023EDC4
:201AA600602030080E75822BC0051215A6D0051555800F30090C758220C0051215A6D00515
:201AC6001555200622AE558E041EC3ED9C502B3007047C3080027C208C82C006C00512150F
:201AE600A6D005D00680E0C3ED95555008E555C39DF555800775550080028E55A9568D0611
:201B06008E051EED6026B20E200E0A09E7C4540FFD8D4A80078705740F5DF54A854A82C075
:201B260006C0011215C9D001D00680D4200603021668AE558E051EED700302166875822099
:181B4600C0061215A6D00680EB8F821215A6021668854B82854C83228D
:0B1D0A003C4E4F20464C4F41543E0021
:011B5E003254
:181B5F00AA82AB83121B776003A380F8C3E5829AF582E5839BF583221A
:0D005B00758167121CA6E582600302005645
:1C1B770020F71430F6148883A88220F507E6A88375830022E280F7E49322E0227D
:201B9300AAF0FBE582855CF0A4FCADF0E583855CF0A42DFDE435F0FEE582855DF0A42DFD13
:201BB300E5F03EFEE433FFEA855CF0A42EFEE5F03FFFE583855DF0A42EFEE5F03FFFE582C9
:201BD300855EF0A42EFEE5F03FFFEB855CF0A42FFFEA855DF0A42FFFE583855EF0A42FFF13
:0E1BF300E582855FF0A42F8EF08D838C822218
:201C0100C2D5E58330E70DD2D5E4C39582F582E49583F583E55D30E70BE4C3955CF55CE41F
:161C2100955DF55D1213BC30D50BE4C39582F582E49583F58322AD
:011C3700327A
:011C38003279
:011C39003278
:011C3A003277
:011C3B003276
:011C3C003275
:011C3D003274
:011C3E003273
:201C3F00FB7A20E4FCFDFEFFE5822582F582E58333F583E5F033F5F0EB33FB4017DAE980DE
:201C5F0042E5822582F582E58333F583E5F033F5F0EB33FBEC33FCED33FDEE33FEEF33FF0D
:201C7F00EC955CED955DEE955EEF955F4013EC955CFCED955DFDEE955EFEEF955FFF438237
:051C9F0001DABEEB229A
:011CA400320D
:011CA500320C
:041CA6007582002221
:011CAA003207
:011CAB003206
:011CAC003205
:00000001FF
